:020000040000FA
:04000000E3EF01F039
:020008001000E6
:080018000F0E026EB40E036E20
:1000200000000000000000000000000000000000D0
:1000300000000000000000000000000000000000C0
:100040000000032EEDD7022EE9D71200960E016EA6
:10005000640E006E000000000000000000000000C0
:100060000000000000000000000000000000000090
:100070000000000000000000000000000000000080
:100080000000000000000000000000000000000070
:100090000000000000000000000000000000000060
:1000A0000000000000000000000000000000000050
:1000B0000000000000000000002ECCD7012EC8D7A1
:1000C00012008298829A828C0CEC00F0829C1200C2
:1000D0008288829A828C0CEC00F0829C1200946AD6
:1000E000936A380E816E61EC00F00C0E816E61EC4B
:1000F00000F0010E816E61EC00F08298829A828C91
:1001000026EC00F0829C12008288829A828C26EC77
:1001100000F0829C1200946A936A380E816E7DEC26
:1001200000F00C0E816E7DEC00F0010E816E7DEC16
:1001300000F01200800E816E7DEC00F01200C00E07
:10014000816E61EC00F01200200E816E68EC00F010
:100150001200200E816E84EC00F01200A9EC00F079
:10016000A9EC00F0A9EC00F0440E816E84EC00F0E4
:10017000590E816E84EC00F0410E816E84EC00F02B
:100180004E0E816E84EC00F0410E816E84EC00F026
:10019000540E816E84EC00F0410E816E84EC00F010
:1001A000530E816E84EC00F0590E816E84EC00F0E9
:1001B000410E816E84EC00F0010E816E7DEC00F04A
:1001C000A9EC00F0A9EC00F0A9EC00F01200A9ECF9
:1001D00000F0A9EC00F0A9EC00F0A9EC00F0440E4E
:1001E000816E84EC00F0450E816E84EC00F0390ED7
:1001F000816E84EC00F0370E816E84EC00F0330EDB
:10020000816E84EC00F0330E816E84EC00F0390EC8
:10021000816E84EC00F0A9EC00F0A9EC00F0A9ECF0
:1002200000F0A9EC00F0120094689AEC00F08BEC5E
:1002300000F082A002D0AEEC00F08BEC00F082A2C5
:1002400002D0E7EC00F01200958095829584959697
:100250009598959A959C1200A4EC00F0A4EC00F0FF
:10026000A4EC00F0A4EC00F0A4EC00F0A4EC00F08E
:10027000A4EC00F012002CEC01F0300E816E68EC62
:1002800000F02CEC01F012002CEC01F0310E816E2C
:1002900068EC00F02CEC01F012002CEC01F0320EB6
:1002A000816E68EC00F02CEC01F012002CEC01F0F7
:1002B000330E816E68EC00F02CEC01F012002CEC97
:1002C00001F0340E816E68EC00F02CEC01F01200AD
:1002D0002CEC01F0350E816E68EC00F02CEC01F096
:1002E00012002CEC01F0360E816E68EC00F02CEC64
:1002F00001F012002CEC01F0370E816E68EC00F07A
:100300002CEC01F012002CEC01F0380E816E68EC40
:1003100000F02CEC01F012002CEC01F0390E816E93
:1003200068EC00F02CEC01F012002CEC01F0230E34
:10033000816E68EC00F02CEC01F012002CEC01F066
:100340002A0E816E68EC00F02CEC01F0120024EC17
:1003500001F08BEC00F09FEC00F0838C83B23BEC5F
:1003600001F0839C838683B444EC01F083B24DECAE
:1003700001F083B056EC01F08396838883B45FEC80
:1003800001F083B268EC01F083B071EC01F0839866
:10039000838A83B47AEC01F083B283EC01F083B0FA
:1003A0008CEC01F0839A838C83B095EC01F083B4DC
:1003B0009EEC01F012009480948294949496949808
:1003C000949A949C1200936ADBEC01F08BEC00F0A1
:0A03D000A7EC01F014EC01F0FBD7DC
:00000001FF
